{
  "contractName": "ticTacToe",
  "abi": [
    {
      "inputs": [],
      "payable": false,
      "stateMutability": "nonpayable",
      "type": "constructor",
      "signature": "constructor"
    },
    {
      "constant": false,
      "inputs": [
        {
          "name": "_player",
          "type": "address"
        }
      ],
      "name": "createPlayer",
      "outputs": [
        {
          "name": "",
          "type": "string"
        }
      ],
      "payable": false,
      "stateMutability": "nonpayable",
      "type": "function",
      "signature": "0xe8ace5d7"
    },
    {
      "constant": true,
      "inputs": [
        {
          "name": "_address",
          "type": "address"
        }
      ],
      "name": "showPlayerStats",
      "outputs": [
        {
          "name": "",
          "type": "bool"
        },
        {
          "name": "",
          "type": "address"
        },
        {
          "name": "",
          "type": "uint256"
        }
      ],
      "payable": false,
      "stateMutability": "view",
      "type": "function",
      "signature": "0x2da8ca9e"
    },
    {
      "constant": true,
      "inputs": [
        {
          "name": "_gameName",
          "type": "string"
        }
      ],
      "name": "getGameName",
      "outputs": [
        {
          "name": "",
          "type": "string"
        }
      ],
      "payable": false,
      "stateMutability": "view",
      "type": "function",
      "signature": "0x9c1c1dd1"
    },
    {
      "constant": false,
      "inputs": [
        {
          "name": "_gameName",
          "type": "string"
        }
      ],
      "name": "changeGameName",
      "outputs": [],
      "payable": false,
      "stateMutability": "nonpayable",
      "type": "function",
      "signature": "0xc2bf638e"
    }
  ],
  "bytecode": "0x608060405234801561001057600080fd5b506040805190810160405280601081526020017f7469632074616320746f652067616d65000000000000000000000000000000008152506000908051906020019061005c929190610062565b50610107565b828054600181600116156101000203166002900490600052602060002090601f016020900481019282601f106100a357805160ff19168380011785556100d1565b828001600101855582156100d1579182015b828111156100d05782518255916020019190600101906100b5565b5b5090506100de91906100e2565b5090565b61010491905b808211156101005760008160009055506001016100e8565b5090565b90565b610794806101166000396000f3fe608060405260043610610062576000357c0100000000000000000000000000000000000000000000000000000000900463ffffffff1680632da8ca9e14610067578063bbda33d91461010a578063c2bf638e1461019a578063e8ace5d714610262575b600080fd5b34801561007357600080fd5b506100b66004803603602081101561008a57600080fd5b81019080803573ffffffffffffffffffffffffffffffffffffffff1690602001909291905050506102b3565b60405180841515151581526020018373ffffffffffffffffffffffffffffffffffffffff1673ffffffffffffffffffffffffffffffffffffffff168152602001828152602001935050505060405180910390f35b34801561011657600080fd5b5061011f6103ce565b6040518080602001828103825283818151815260200191508051906020019080838360005b8381101561015f578082015181840152602081019050610144565b50505050905090810190601f16801561018c5780820380516001836020036101000a031916815260200191505b509250505060405180910390f35b3480156101a657600080fd5b50610260600480360360208110156101bd57600080fd5b81019080803590602001906401000000008111156101da57600080fd5b8201836020820111156101ec57600080fd5b8035906020019184600183028401116401000000008311171561020e57600080fd5b91908080601f016020809104026020016040519081016040528093929190818152602001838380828437600081840152601f19601f820116905080830192505050505050509192919290505050610470565b005b34801561026e57600080fd5b506102b16004803603602081101561028557600080fd5b81019080803573ffffffffffffffffffffffffffffffffffffffff16906020019092919050505061048a565b005b6000806000600260008573ffffffffffffffffffffffffffffffffffffffff1673ffffffffffffffffffffffffffffffffffffffff16815260200190815260200160002060000160009054906101000a900460ff16600260008673ffffffffffffffffffffffffffffffffffffffff1673ffffffffffffffffffffffffffffffffffffffff16815260200190815260200160002060000160019054906101000a900473ffffffffffffffffffffffffffffffffffffffff16600260008773ffffffffffffffffffffffffffffffffffffffff1673ffffffffffffffffffffffffffffffffffffffff16815260200190815260200160002060000160159054906101000a900460ff168060ff1690509250925092509193909250565b606060008054600181600116156101000203166002900480601f0160208091040260200160405190810160405280929190818152602001828054600181600116156101000203166002900480156104665780601f1061043b57610100808354040283529160200191610466565b820191906000526020600020905b81548152906001019060200180831161044957829003601f168201915b5050505050905090565b80600090805190602001906104869291906106c3565b5050565b600260018054905010151561049e57600080fd5b8073ffffffffffffffffffffffffffffffffffffffff16600260008373ffffffffffffffffffffffffffffffffffffffff1673ffffffffffffffffffffffffffffffffffffffff16815260200190815260200160002060000160019054906101000a900473ffffffffffffffffffffffffffffffffffffffff1673ffffffffffffffffffffffffffffffffffffffff161415151561053b57600080fd5b600060018054905014156106c057606060405190810160405280600060018054905014151581526020018273ffffffffffffffffffffffffffffffffffffffff168152602001600180805490500160ff16815250600260008373ffffffffffffffffffffffffffffffffffffffff1673ffffffffffffffffffffffffffffffffffffffff16815260200190815260200160002060008201518160000160006101000a81548160ff02191690831515021790555060208201518160000160016101000a81548173ffffffffffffffffffffffffffffffffffffffff021916908373ffffffffffffffffffffffffffffffffffffffff16021790555060408201518160000160156101000a81548160ff021916908360ff16021790555090505060018190806001815401808255809150509060018203906000526020600020016000909192909190916101000a81548173ffffffffffffffffffffffffffffffffffffffff021916908373ffffffffffffffffffffffffffffffffffffffff160217905550505b50565b828054600181600116156101000203166002900490600052602060002090601f016020900481019282601f1061070457805160ff1916838001178555610732565b82800160010185558215610732579182015b82811115610731578251825591602001919060010190610716565b5b50905061073f9190610743565b5090565b61076591905b80821115610761576000816000905550600101610749565b5090565b9056fea165627a7a7230582057eac077b944503476d3a2704dd2fe450da9aadcece99a8aa25423b7d53c59e50029",
  "source": "pragma solidity ^0.5.0;\n\ncontract ticTacToe {\n\n  string gameName;\n\n  struct gamePlayers {\n    bool turn; /*keeps track of player turn*/\n    address playerAddress; /*players address*/\n    uint8 playerNumber; /*determines is player is 1 or 2*/\n  }\n\n  /* string of addresses to keep track of players */\n  address[] players;\n\n  mapping(address => gamePlayers) playerMapping;\n\n  constructor() public {\n    gameName = \"tic tac toe game\";\n  }\n\n  function createPlayer(address _player) public {\n    require(uint(players.length) < 2);\n    require(playerMapping[_player].playerAddress != _player);\n    if (uint(players.length) == 0) {\n      playerMapping[_player] = gamePlayers(bool(players.length==0), _player, uint8(players.length+1));\n    /* }\n    if (uint(players.length) ==1) {\n      playerMapping[_player] = gamePlayers(false, _player, uint8(2));\n    } */\n    players.push(_player);\n  }\n}\n\n  function showPlayerStats(address _address) public view returns(bool, address, uint) {\n    return(playerMapping[_address].turn, playerMapping[_address].playerAddress,\n      playerMapping[_address].playerNumber);\n  }\n\n  function getGameName() public view returns(string memory) {\n    return gameName;\n  }\n\n  function changeGameName(string memory _gameName) public {\n    gameName = _gameName;\n  }\n}\n",
  "sourcePath": "/home/josh/Documents/smartContracts/ticTacToe/contracts/ticTacToe.sol",
  "compiler": {
    "name": "solc",
    "version": "0.5.0+commit.1d4f565a.Emscripten.clang"
  },
  "schemaVersion": "3.0.8",
  "updatedAt": "2019-05-16T00:32:59.904Z",
  "devdoc": {
    "methods": {}
  },
  "userdoc": {
    "methods": {}
  }
}